{
  "_format": "hh-sol-artifact-1",
  "contractName": "MyEpicNFT",
  "sourceName": "contracts/MyEpicNFT.sol",
  "abi": [
    {
      "inputs": [],
      "stateMutability": "nonpayable",
      "type": "constructor"
    },
    {
      "anonymous": false,
      "inputs": [
        {
          "indexed": true,
          "internalType": "address",
          "name": "owner",
          "type": "address"
        },
        {
          "indexed": true,
          "internalType": "address",
          "name": "approved",
          "type": "address"
        },
        {
          "indexed": true,
          "internalType": "uint256",
          "name": "tokenId",
          "type": "uint256"
        }
      ],
      "name": "Approval",
      "type": "event"
    },
    {
      "anonymous": false,
      "inputs": [
        {
          "indexed": true,
          "internalType": "address",
          "name": "owner",
          "type": "address"
        },
        {
          "indexed": true,
          "internalType": "address",
          "name": "operator",
          "type": "address"
        },
        {
          "indexed": false,
          "internalType": "bool",
          "name": "approved",
          "type": "bool"
        }
      ],
      "name": "ApprovalForAll",
      "type": "event"
    },
    {
      "anonymous": false,
      "inputs": [
        {
          "indexed": false,
          "internalType": "address",
          "name": "sender",
          "type": "address"
        },
        {
          "indexed": false,
          "internalType": "uint256",
          "name": "tokenId",
          "type": "uint256"
        }
      ],
      "name": "NewEpicNFTMinted",
      "type": "event"
    },
    {
      "anonymous": false,
      "inputs": [
        {
          "indexed": true,
          "internalType": "address",
          "name": "from",
          "type": "address"
        },
        {
          "indexed": true,
          "internalType": "address",
          "name": "to",
          "type": "address"
        },
        {
          "indexed": true,
          "internalType": "uint256",
          "name": "tokenId",
          "type": "uint256"
        }
      ],
      "name": "Transfer",
      "type": "event"
    },
    {
      "inputs": [
        {
          "internalType": "address",
          "name": "to",
          "type": "address"
        },
        {
          "internalType": "uint256",
          "name": "tokenId",
          "type": "uint256"
        }
      ],
      "name": "approve",
      "outputs": [],
      "stateMutability": "nonpayable",
      "type": "function"
    },
    {
      "inputs": [
        {
          "internalType": "address",
          "name": "owner",
          "type": "address"
        }
      ],
      "name": "balanceOf",
      "outputs": [
        {
          "internalType": "uint256",
          "name": "",
          "type": "uint256"
        }
      ],
      "stateMutability": "view",
      "type": "function"
    },
    {
      "inputs": [
        {
          "internalType": "uint256",
          "name": "tokenId",
          "type": "uint256"
        }
      ],
      "name": "getApproved",
      "outputs": [
        {
          "internalType": "address",
          "name": "",
          "type": "address"
        }
      ],
      "stateMutability": "view",
      "type": "function"
    },
    {
      "inputs": [
        {
          "internalType": "address",
          "name": "owner",
          "type": "address"
        },
        {
          "internalType": "address",
          "name": "operator",
          "type": "address"
        }
      ],
      "name": "isApprovedForAll",
      "outputs": [
        {
          "internalType": "bool",
          "name": "",
          "type": "bool"
        }
      ],
      "stateMutability": "view",
      "type": "function"
    },
    {
      "inputs": [],
      "name": "makeAnEpicNFT",
      "outputs": [],
      "stateMutability": "nonpayable",
      "type": "function"
    },
    {
      "inputs": [],
      "name": "maxSupply",
      "outputs": [
        {
          "internalType": "uint256",
          "name": "",
          "type": "uint256"
        }
      ],
      "stateMutability": "view",
      "type": "function"
    },
    {
      "inputs": [],
      "name": "name",
      "outputs": [
        {
          "internalType": "string",
          "name": "",
          "type": "string"
        }
      ],
      "stateMutability": "view",
      "type": "function"
    },
    {
      "inputs": [
        {
          "internalType": "uint256",
          "name": "tokenId",
          "type": "uint256"
        }
      ],
      "name": "ownerOf",
      "outputs": [
        {
          "internalType": "address",
          "name": "",
          "type": "address"
        }
      ],
      "stateMutability": "view",
      "type": "function"
    },
    {
      "inputs": [
        {
          "internalType": "uint256",
          "name": "tokenId",
          "type": "uint256"
        }
      ],
      "name": "pickRandomFirstWord",
      "outputs": [
        {
          "internalType": "string",
          "name": "",
          "type": "string"
        }
      ],
      "stateMutability": "view",
      "type": "function"
    },
    {
      "inputs": [
        {
          "internalType": "uint256",
          "name": "tokenId",
          "type": "uint256"
        }
      ],
      "name": "pickRandomSecondWord",
      "outputs": [
        {
          "internalType": "string",
          "name": "",
          "type": "string"
        }
      ],
      "stateMutability": "view",
      "type": "function"
    },
    {
      "inputs": [
        {
          "internalType": "uint256",
          "name": "tokenId",
          "type": "uint256"
        }
      ],
      "name": "pickRandomThirdWord",
      "outputs": [
        {
          "internalType": "string",
          "name": "",
          "type": "string"
        }
      ],
      "stateMutability": "view",
      "type": "function"
    },
    {
      "inputs": [
        {
          "internalType": "address",
          "name": "from",
          "type": "address"
        },
        {
          "internalType": "address",
          "name": "to",
          "type": "address"
        },
        {
          "internalType": "uint256",
          "name": "tokenId",
          "type": "uint256"
        }
      ],
      "name": "safeTransferFrom",
      "outputs": [],
      "stateMutability": "nonpayable",
      "type": "function"
    },
    {
      "inputs": [
        {
          "internalType": "address",
          "name": "from",
          "type": "address"
        },
        {
          "internalType": "address",
          "name": "to",
          "type": "address"
        },
        {
          "internalType": "uint256",
          "name": "tokenId",
          "type": "uint256"
        },
        {
          "internalType": "bytes",
          "name": "_data",
          "type": "bytes"
        }
      ],
      "name": "safeTransferFrom",
      "outputs": [],
      "stateMutability": "nonpayable",
      "type": "function"
    },
    {
      "inputs": [
        {
          "internalType": "address",
          "name": "operator",
          "type": "address"
        },
        {
          "internalType": "bool",
          "name": "approved",
          "type": "bool"
        }
      ],
      "name": "setApprovalForAll",
      "outputs": [],
      "stateMutability": "nonpayable",
      "type": "function"
    },
    {
      "inputs": [
        {
          "internalType": "bytes4",
          "name": "interfaceId",
          "type": "bytes4"
        }
      ],
      "name": "supportsInterface",
      "outputs": [
        {
          "internalType": "bool",
          "name": "",
          "type": "bool"
        }
      ],
      "stateMutability": "view",
      "type": "function"
    },
    {
      "inputs": [],
      "name": "symbol",
      "outputs": [
        {
          "internalType": "string",
          "name": "",
          "type": "string"
        }
      ],
      "stateMutability": "view",
      "type": "function"
    },
    {
      "inputs": [
        {
          "internalType": "uint256",
          "name": "tokenId",
          "type": "uint256"
        }
      ],
      "name": "tokenURI",
      "outputs": [
        {
          "internalType": "string",
          "name": "",
          "type": "string"
        }
      ],
      "stateMutability": "view",
      "type": "function"
    },
    {
      "inputs": [
        {
          "internalType": "address",
          "name": "from",
          "type": "address"
        },
        {
          "internalType": "address",
          "name": "to",
          "type": "address"
        },
        {
          "internalType": "uint256",
          "name": "tokenId",
          "type": "uint256"
        }
      ],
      "name": "transferFrom",
      "outputs": [],
      "stateMutability": "nonpayable",
      "type": "function"
    }
  ],
  "bytecode": "0x6080604052603260085560405180610160016040528061012f81526020016200452861012f9139600990805190602001906200003d929190620005d2565b506040518060a001604052806040518060400160405280600281526020017f492000000000000000000000000000000000000000000000000000000000000081525081526020016040518060400160405280600481526020017f796f75200000000000000000000000000000000000000000000000000000000081525081526020016040518060400160405280600381526020017f686520000000000000000000000000000000000000000000000000000000000081525081526020016040518060400160405280600481526020017f736865200000000000000000000000000000000000000000000000000000000081525081526020016040518060400160405280600581526020017f7468657920000000000000000000000000000000000000000000000000000000815250815250600a9060056200018092919062000663565b506040518060a001604052806040518060400160405280600581526020017f686176652000000000000000000000000000000000000000000000000000000081525081526020016040518060400160405280600481526020017f656174200000000000000000000000000000000000000000000000000000000081525081526020016040518060400160405280600581526020017f74616b652000000000000000000000000000000000000000000000000000000081525081526020016040518060400160405280600681526020017f6472696e6b20000000000000000000000000000000000000000000000000000081525081526020016040518060400160405280600481526020017f6765742000000000000000000000000000000000000000000000000000000000815250815250600b906005620002c392919062000663565b506040518060a001604052806040518060400160405280600381526020017f646f67000000000000000000000000000000000000000000000000000000000081525081526020016040518060400160405280600481526020017f73616b650000000000000000000000000000000000000000000000000000000081525081526020016040518060400160405280600481526020017f6d6561740000000000000000000000000000000000000000000000000000000081525081526020016040518060400160405280600781526020017f706963747572650000000000000000000000000000000000000000000000000081525081526020016040518060400160405280600381526020017f6b65790000000000000000000000000000000000000000000000000000000000815250815250600c9060056200040692919062000663565b503480156200041457600080fd5b506040518060400160405280600981526020017f5371756172654e465400000000000000000000000000000000000000000000008152506040518060400160405280600681526020017f5351554152450000000000000000000000000000000000000000000000000000815250816000908051906020019062000499929190620005d2565b508060019080519060200190620004b2929190620005d2565b505050620005006040518060400160405280601881526020017f54686973206973206d79204e465420636f6e74726163742e00000000000000008152506200050660201b6200123e1760201c565b62000884565b620005a6816040516024016200051d919062000798565b6040516020818303038152906040527f41304fac000000000000000000000000000000000000000000000000000000007bffffffffffffffffffffffffffffffffffffffffffffffffffffffff19166020820180517bffffffffffffffffffffffffffffffffffffffffffffffffffffffff8381831617835250505050620005a960201b60201c565b50565b60008151905060006a636f6e736f6c652e6c6f679050602083016000808483855afa5050505050565b828054620005e0906200080e565b90600052602060002090601f01602090048101928262000604576000855562000650565b82601f106200061f57805160ff191683800117855562000650565b8280016001018555821562000650579182015b828111156200064f57825182559160200191906001019062000632565b5b5090506200065f9190620006ca565b5090565b828054828255906000526020600020908101928215620006b7579160200282015b82811115620006b6578251829080519060200190620006a5929190620005d2565b509160200191906001019062000684565b5b509050620006c69190620006e9565b5090565b5b80821115620006e5576000816000905550600101620006cb565b5090565b5b808211156200070d576000818162000703919062000711565b50600101620006ea565b5090565b5080546200071f906200080e565b6000825580601f1062000733575062000754565b601f016020900490600052602060002090810190620007539190620006ca565b5b50565b60006200076482620007bc565b620007708185620007c7565b935062000782818560208601620007d8565b6200078d8162000873565b840191505092915050565b60006020820190508181036000830152620007b4818462000757565b905092915050565b600081519050919050565b600082825260208201905092915050565b60005b83811015620007f8578082015181840152602081019050620007db565b8381111562000808576000848401525b50505050565b600060028204905060018216806200082757607f821691505b602082108114156200083e576200083d62000844565b5b50919050565b7f4e487b7100000000000000000000000000000000000000000000000000000000600052602260045260246000fd5b6000601f19601f8301169050919050565b613c9480620008946000396000f3fe608060405234801561001057600080fd5b50600436106101165760003560e01c806395d89b41116100a2578063c575757a11610071578063c575757a14610303578063c87b56dd14610333578063d5abeb0114610363578063de9d132f14610381578063e985e9c51461038b57610116565b806395d89b411461027d578063a22cb4651461029b578063b187301f146102b7578063b88d4fde146102e757610116565b806323b872dd116100e957806323b872dd146101b55780632de38d68146101d157806342842e0e146102015780636352211e1461021d57806370a082311461024d57610116565b806301ffc9a71461011b57806306fdde031461014b578063081812fc14610169578063095ea7b314610199575b600080fd5b61013560048036038101906101309190612706565b6103bb565b6040516101429190612e33565b60405180910390f35b61015361049d565b6040516101609190612e4e565b60405180910390f35b610183600480360381019061017e9190612758565b61052f565b6040516101909190612da3565b60405180910390f35b6101b360048036038101906101ae91906126ca565b6105b4565b005b6101cf60048036038101906101ca91906125c4565b6106cc565b005b6101eb60048036038101906101e69190612758565b61072c565b6040516101f89190612e4e565b60405180910390f35b61021b600480360381019061021691906125c4565b6108c8565b005b61023760048036038101906102329190612758565b6108e8565b6040516102449190612da3565b60405180910390f35b6102676004803603810190610262919061255f565b61099a565b60405161027491906130fe565b60405180910390f35b610285610a52565b6040516102929190612e4e565b60405180910390f35b6102b560048036038101906102b0919061268e565b610ae4565b005b6102d160048036038101906102cc9190612758565b610afa565b6040516102de9190612e4e565b60405180910390f35b61030160048036038101906102fc9190612613565b610c18565b005b61031d60048036038101906103189190612758565b610c7a565b60405161032a9190612e4e565b60405180910390f35b61034d60048036038101906103489190612758565b610d98565b60405161035a9190612e4e565b60405180910390f35b61036b610eea565b60405161037891906130fe565b60405180910390f35b610389610ef0565b005b6103a560048036038101906103a09190612588565b6111aa565b6040516103b29190612e33565b60405180910390f35b60007f80ac58cd000000000000000000000000000000000000000000000000000000007bffffffffffffffffffffffffffffffffffffffffffffffffffffffff1916827bffffffffffffffffffffffffffffffffffffffffffffffffffffffff1916148061048657507f5b5e139f000000000000000000000000000000000000000000000000000000007bffffffffffffffffffffffffffffffffffffffffffffffffffffffff1916827bffffffffffffffffffffffffffffffffffffffffffffffffffffffff1916145b806104965750610495826112d7565b5b9050919050565b6060600080546104ac90613392565b80601f01602080910402602001604051908101604052809291908181526020018280546104d890613392565b80156105255780601f106104fa57610100808354040283529160200191610525565b820191906000526020600020905b81548152906001019060200180831161050857829003601f168201915b5050505050905090565b600061053a82611341565b610579576040517f08c379a00000000000000000000000000000000000000000000000000000000081526004016105709061307e565b60405180910390fd5b6004600083815260200190815260200160002060009054906101000a900473ffffffffffffffffffffffffffffffffffffffff169050919050565b60006105bf826108e8565b90508073ffffffffffffffffffffffffffffffffffffffff168373ffffffffffffffffffffffffffffffffffffffff161415610630576040517f08c379a0000000000000000000000000000000000000000000000000000000008152600401610627906130be565b60405180910390fd5b8073ffffffffffffffffffffffffffffffffffffffff1661064f6113ad565b73ffffffffffffffffffffffffffffffffffffffff16148061067e575061067d816106786113ad565b6111aa565b5b6106bd576040517f08c379a00000000000000000000000000000000000000000000000000000000081526004016106b490612fbe565b60405180910390fd5b6106c783836113b5565b505050565b6106dd6106d76113ad565b8261146e565b61071c576040517f08c379a0000000000000000000000000000000000000000000000000000000008152600401610713906130de565b60405180910390fd5b61072783838361154c565b505050565b6060600061076061073c846117b3565b60405160200161074c9190612d5f565b604051602081830303815290604052611960565b90506107a16040518060400160405280600d81526020017f72616e64202d20736565643a200000000000000000000000000000000000000081525082611993565b600a80549050816107b2919061343e565b90506107f36040518060400160405280601381526020017f72616e64202d20666972737420776f72643a200000000000000000000000000081525082611993565b600a818154811061082d577f4e487b7100000000000000000000000000000000000000000000000000000000600052603260045260246000fd5b90600052602060002001805461084290613392565b80601f016020809104026020016040519081016040528092919081815260200182805461086e90613392565b80156108bb5780601f10610890576101008083540402835291602001916108bb565b820191906000526020600020905b81548152906001019060200180831161089e57829003601f168201915b5050505050915050919050565b6108e383838360405180602001604052806000815250610c18565b505050565b6000806002600084815260200190815260200160002060009054906101000a900473ffffffffffffffffffffffffffffffffffffffff169050600073ffffffffffffffffffffffffffffffffffffffff168173ffffffffffffffffffffffffffffffffffffffff161415610991576040517f08c379a000000000000000000000000000000000000000000000000000000000815260040161098890612ffe565b60405180910390fd5b80915050919050565b60008073ffffffffffffffffffffffffffffffffffffffff168273ffffffffffffffffffffffffffffffffffffffff161415610a0b576040517f08c379a0000000000000000000000000000000000000000000000000000000008152600401610a0290612fde565b60405180910390fd5b600360008373ffffffffffffffffffffffffffffffffffffffff1673ffffffffffffffffffffffffffffffffffffffff168152602001908152602001600020549050919050565b606060018054610a6190613392565b80601f0160208091040260200160405190810160405280929190818152602001828054610a8d90613392565b8015610ada5780601f10610aaf57610100808354040283529160200191610ada565b820191906000526020600020905b815481529060010190602001808311610abd57829003601f168201915b5050505050905090565b610af6610aef6113ad565b8383611a2f565b5050565b60606000610b2e610b0a846117b3565b604051602001610b1a9190612cf8565b604051602081830303815290604052611960565b9050600b8054905081610b41919061343e565b9050600b8181548110610b7d577f4e487b7100000000000000000000000000000000000000000000000000000000600052603260045260246000fd5b906000526020600020018054610b9290613392565b80601f0160208091040260200160405190810160405280929190818152602001828054610bbe90613392565b8015610c0b5780601f10610be057610100808354040283529160200191610c0b565b820191906000526020600020905b815481529060010190602001808311610bee57829003601f168201915b5050505050915050919050565b610c29610c236113ad565b8361146e565b610c68576040517f08c379a0000000000000000000000000000000000000000000000000000000008152600401610c5f906130de565b60405180910390fd5b610c7484848484611b9c565b50505050565b60606000610cae610c8a846117b3565b604051602001610c9a9190612cd6565b604051602081830303815290604052611960565b9050600c8054905081610cc1919061343e565b9050600c8181548110610cfd577f4e487b7100000000000000000000000000000000000000000000000000000000600052603260045260246000fd5b906000526020600020018054610d1290613392565b80601f0160208091040260200160405190810160405280929190818152602001828054610d3e90613392565b8015610d8b5780601f10610d6057610100808354040283529160200191610d8b565b820191906000526020600020905b815481529060010190602001808311610d6e57829003601f168201915b5050505050915050919050565b6060610da382611341565b610de2576040517f08c379a0000000000000000000000000000000000000000000000000000000008152600401610dd99061305e565b60405180910390fd5b6000600660008481526020019081526020016000208054610e0290613392565b80601f0160208091040260200160405190810160405280929190818152602001828054610e2e90613392565b8015610e7b5780601f10610e5057610100808354040283529160200191610e7b565b820191906000526020600020905b815481529060010190602001808311610e5e57829003601f168201915b505050505090506000610e8c611bf8565b9050600081511415610ea2578192505050610ee5565b600082511115610ed7578082604051602001610ebf929190612c52565b60405160208183030381529060405292505050610ee5565b610ee084611c0f565b925050505b919050565b60085481565b6000610efc6007611cb6565b9050600854610f0b6007611cb6565b1115610f4c576040517f08c379a0000000000000000000000000000000000000000000000000000000008152600401610f4390612f9e565b60405180910390fd5b6000610f578261072c565b90506000610f6483610afa565b90506000610f7184610c7a565b90506000838383604051602001610f8a93929190612c76565b60405160208183030381529060405290506000600982604051602001610fb1929190612ca7565b60405160208183030381529060405290506110006040518060400160405280601581526020017f0a2d2d2d2d2d205356472064617461202d2d2d2d2d000000000000000000000081525061123e565b6110098161123e565b6110476040518060400160405280601581526020017f2d2d2d2d2d2d2d2d2d2d2d2d2d2d2d2d2d2d2d2d0a000000000000000000000081525061123e565b600061107b8361105684611cc4565b604051602001611067929190612d1a565b604051602081830303815290604052611cc4565b90506000816040516020016110909190612d81565b60405160208183030381529060405290506110df6040518060400160405280601581526020017f0a2d2d2d2d2d20546f6b656e20555249202d2d2d2d000000000000000000000081525061123e565b6110e88161123e565b6111266040518060400160405280601581526020017f2d2d2d2d2d2d2d2d2d2d2d2d2d2d2d2d2d2d2d2d0a000000000000000000000081525061123e565b6111303389611e82565b61113a8882611ea0565b61115d604051806060016040528060258152602001613bfa602591398933611f14565b6111676007611fb3565b7febb98688741ffa4c7589bf325de30cf7becb63de567842e1ccdb6cb949fdc82c3389604051611198929190612e0a565b60405180910390a15050505050505050565b6000600560008473ffffffffffffffffffffffffffffffffffffffff1673ffffffffffffffffffffffffffffffffffffffff16815260200190815260200160002060008373ffffffffffffffffffffffffffffffffffffffff1673ffffffffffffffffffffffffffffffffffffffff16815260200190815260200160002060009054906101000a900460ff16905092915050565b6112d4816040516024016112529190612e4e565b6040516020818303038152906040527f41304fac000000000000000000000000000000000000000000000000000000007bffffffffffffffffffffffffffffffffffffffffffffffffffffffff19166020820180517bffffffffffffffffffffffffffffffffffffffffffffffffffffffff8381831617835250505050611fc9565b50565b60007f01ffc9a7000000000000000000000000000000000000000000000000000000007bffffffffffffffffffffffffffffffffffffffffffffffffffffffff1916827bffffffffffffffffffffffffffffffffffffffffffffffffffffffff1916149050919050565b60008073ffffffffffffffffffffffffffffffffffffffff166002600084815260200190815260200160002060009054906101000a900473ffffffffffffffffffffffffffffffffffffffff1673ffffffffffffffffffffffffffffffffffffffff1614159050919050565b600033905090565b816004600083815260200190815260200160002060006101000a81548173ffffffffffffffffffffffffffffffffffffffff021916908373ffffffffffffffffffffffffffffffffffffffff160217905550808273ffffffffffffffffffffffffffffffffffffffff16611428836108e8565b73ffffffffffffffffffffffffffffffffffffffff167f8c5be1e5ebec7d5bd14f71427d1e84f3dd0314c0f7b2291e5b200ac8c7c3b92560405160405180910390a45050565b600061147982611341565b6114b8576040517f08c379a00000000000000000000000000000000000000000000000000000000081526004016114af90612f7e565b60405180910390fd5b60006114c3836108e8565b90508073ffffffffffffffffffffffffffffffffffffffff168473ffffffffffffffffffffffffffffffffffffffff161480611505575061150481856111aa565b5b8061154357508373ffffffffffffffffffffffffffffffffffffffff1661152b8461052f565b73ffffffffffffffffffffffffffffffffffffffff16145b91505092915050565b8273ffffffffffffffffffffffffffffffffffffffff1661156c826108e8565b73ffffffffffffffffffffffffffffffffffffffff16146115c2576040517f08c379a00000000000000000000000000000000000000000000000000000000081526004016115b990612efe565b60405180910390fd5b600073ffffffffffffffffffffffffffffffffffffffff168273ffffffffffffffffffffffffffffffffffffffff161415611632576040517f08c379a000000000000000000000000000000000000000000000000000000000815260040161162990612f3e565b60405180910390fd5b61163d838383611ff2565b6116486000826113b5565b6001600360008573ffffffffffffffffffffffffffffffffffffffff1673ffffffffffffffffffffffffffffffffffffffff168152602001908152602001600020600082825461169891906132a8565b925050819055506001600360008473ffffffffffffffffffffffffffffffffffffffff1673ffffffffffffffffffffffffffffffffffffffff16815260200190815260200160002060008282546116ef91906131c7565b92505081905550816002600083815260200190815260200160002060006101000a81548173ffffffffffffffffffffffffffffffffffffffff021916908373ffffffffffffffffffffffffffffffffffffffff160217905550808273ffffffffffffffffffffffffffffffffffffffff168473ffffffffffffffffffffffffffffffffffffffff167fddf252ad1be2c89b69c2b068fc378daa952ba7f163c4a11628f55a4df523b3ef60405160405180910390a46117ae838383611ff7565b505050565b606060008214156117fb576040518060400160405280600181526020017f3000000000000000000000000000000000000000000000000000000000000000815250905061195b565b600082905060005b6000821461182d578080611816906133f5565b915050600a82611826919061321d565b9150611803565b60008167ffffffffffffffff81111561186f577f4e487b7100000000000000000000000000000000000000000000000000000000600052604160045260246000fd5b6040519080825280601f01601f1916602001820160405280156118a15781602001600182028036833780820191505090505b5090505b60008514611954576001826118ba91906132a8565b9150600a856118c9919061343e565b60306118d591906131c7565b60f81b818381518110611911577f4e487b7100000000000000000000000000000000000000000000000000000000600052603260045260246000fd5b60200101907effffffffffffffffffffffffffffffffffffffffffffffffffffffffffffff1916908160001a905350600a8561194d919061321d565b94506118a5565b8093505050505b919050565b6000816040516020016119739190612c3b565b6040516020818303038152906040528051906020012060001c9050919050565b611a2b82826040516024016119a9929190612e70565b6040516020818303038152906040527f9710a9d0000000000000000000000000000000000000000000000000000000007bffffffffffffffffffffffffffffffffffffffffffffffffffffffff19166020820180517bffffffffffffffffffffffffffffffffffffffffffffffffffffffff8381831617835250505050611fc9565b5050565b8173ffffffffffffffffffffffffffffffffffffffff168373ffffffffffffffffffffffffffffffffffffffff161415611a9e576040517f08c379a0000000000000000000000000000000000000000000000000000000008152600401611a9590612f5e565b60405180910390fd5b80600560008573ffffffffffffffffffffffffffffffffffffffff1673ffffffffffffffffffffffffffffffffffffffff16815260200190815260200160002060008473ffffffffffffffffffffffffffffffffffffffff1673ffffffffffffffffffffffffffffffffffffffff16815260200190815260200160002060006101000a81548160ff0219169083151502179055508173ffffffffffffffffffffffffffffffffffffffff168373ffffffffffffffffffffffffffffffffffffffff167f17307eab39ab6107e8899845ad3d59bd9653f200f220920489ca2b5937696c3183604051611b8f9190612e33565b60405180910390a3505050565b611ba784848461154c565b611bb384848484611ffc565b611bf2576040517f08c379a0000000000000000000000000000000000000000000000000000000008152600401611be990612ede565b60405180910390fd5b50505050565b606060405180602001604052806000815250905090565b6060611c1a82611341565b611c59576040517f08c379a0000000000000000000000000000000000000000000000000000000008152600401611c509061309e565b60405180910390fd5b6000611c63611bf8565b90506000815111611c835760405180602001604052806000815250611cae565b80611c8d846117b3565b604051602001611c9e929190612c52565b6040516020818303038152906040525b915050919050565b600081600001549050919050565b60606000825190506000811415611ced5760405180602001604052806000815250915050611e7d565b60006003600283611cfe91906131c7565b611d08919061321d565b6004611d14919061324e565b90506000602082611d2591906131c7565b67ffffffffffffffff811115611d64577f4e487b7100000000000000000000000000000000000000000000000000000000600052604160045260246000fd5b6040519080825280601f01601f191660200182016040528015611d965781602001600182028036833780820191505090505b5090506000604051806060016040528060408152602001613c1f604091399050600181016020830160005b86811015611e3a5760038101905062ffffff818a015116603f8160121c168401518060081b905060ff603f83600c1c1686015116810190508060081b905060ff603f8360061c1686015116810190508060081b905060ff603f831686015116810190508060e01b90508084526004840193505050611dc1565b506003860660018114611e545760028114611e6457611e6f565b613d3d60f01b6002830352611e6f565b603d60f81b60018303525b508484525050819450505050505b919050565b611e9c828260405180602001604052806000815250612193565b5050565b611ea982611341565b611ee8576040517f08c379a0000000000000000000000000000000000000000000000000000000008152600401611edf9061301e565b60405180910390fd5b80600660008481526020019081526020016000209080519060200190611f0f9291906123eb565b505050565b611fae838383604051602401611f2c93929190612ea0565b6040516020818303038152906040527fe3849f79000000000000000000000000000000000000000000000000000000007bffffffffffffffffffffffffffffffffffffffffffffffffffffffff19166020820180517bffffffffffffffffffffffffffffffffffffffffffffffffffffffff8381831617835250505050611fc9565b505050565b6001816000016000828254019250508190555050565b60008151905060006a636f6e736f6c652e6c6f679050602083016000808483855afa5050505050565b505050565b505050565b600061201d8473ffffffffffffffffffffffffffffffffffffffff166121ee565b15612186578373ffffffffffffffffffffffffffffffffffffffff1663150b7a026120466113ad565b8786866040518563ffffffff1660e01b81526004016120689493929190612dbe565b602060405180830381600087803b15801561208257600080fd5b505af19250505080156120b357506040513d601f19601f820116820180604052508101906120b0919061272f565b60015b612136573d80600081146120e3576040519150601f19603f3d011682016040523d82523d6000602084013e6120e8565b606091505b5060008151141561212e576040517f08c379a000000000000000000000000000000000000000000000000000000000815260040161212590612ede565b60405180910390fd5b805181602001fd5b63150b7a0260e01b7bffffffffffffffffffffffffffffffffffffffffffffffffffffffff1916817bffffffffffffffffffffffffffffffffffffffffffffffffffffffff19161491505061218b565b600190505b949350505050565b61219d8383612211565b6121aa6000848484611ffc565b6121e9576040517f08c379a00000000000000000000000000000000000000000000000000000000081526004016121e090612ede565b60405180910390fd5b505050565b6000808273ffffffffffffffffffffffffffffffffffffffff163b119050919050565b600073ffffffffffffffffffffffffffffffffffffffff168273ffffffffffffffffffffffffffffffffffffffff161415612281576040517f08c379a00000000000000000000000000000000000000000000000000000000081526004016122789061303e565b60405180910390fd5b61228a81611341565b156122ca576040517f08c379a00000000000000000000000000000000000000000000000000000000081526004016122c190612f1e565b60405180910390fd5b6122d660008383611ff2565b6001600360008473ffffffffffffffffffffffffffffffffffffffff1673ffffffffffffffffffffffffffffffffffffffff168152602001908152602001600020600082825461232691906131c7565b92505081905550816002600083815260200190815260200160002060006101000a81548173ffffffffffffffffffffffffffffffffffffffff021916908373ffffffffffffffffffffffffffffffffffffffff160217905550808273ffffffffffffffffffffffffffffffffffffffff16600073ffffffffffffffffffffffffffffffffffffffff167fddf252ad1be2c89b69c2b068fc378daa952ba7f163c4a11628f55a4df523b3ef60405160405180910390a46123e760008383611ff7565b5050565b8280546123f790613392565b90600052602060002090601f0160209004810192826124195760008555612460565b82601f1061243257805160ff1916838001178555612460565b82800160010185558215612460579182015b8281111561245f578251825591602001919060010190612444565b5b50905061246d9190612471565b5090565b5b8082111561248a576000816000905550600101612472565b5090565b60006124a161249c8461313e565b613119565b9050828152602081018484840111156124b957600080fd5b6124c4848285613350565b509392505050565b6000813590506124db81613b9d565b92915050565b6000813590506124f081613bb4565b92915050565b60008135905061250581613bcb565b92915050565b60008151905061251a81613bcb565b92915050565b600082601f83011261253157600080fd5b813561254184826020860161248e565b91505092915050565b60008135905061255981613be2565b92915050565b60006020828403121561257157600080fd5b600061257f848285016124cc565b91505092915050565b6000806040838503121561259b57600080fd5b60006125a9858286016124cc565b92505060206125ba858286016124cc565b9150509250929050565b6000806000606084860312156125d957600080fd5b60006125e7868287016124cc565b93505060206125f8868287016124cc565b92505060406126098682870161254a565b9150509250925092565b6000806000806080858703121561262957600080fd5b6000612637878288016124cc565b9450506020612648878288016124cc565b93505060406126598782880161254a565b925050606085013567ffffffffffffffff81111561267657600080fd5b61268287828801612520565b91505092959194509250565b600080604083850312156126a157600080fd5b60006126af858286016124cc565b92505060206126c0858286016124e1565b9150509250929050565b600080604083850312156126dd57600080fd5b60006126eb858286016124cc565b92505060206126fc8582860161254a565b9150509250929050565b60006020828403121561271857600080fd5b6000612726848285016124f6565b91505092915050565b60006020828403121561274157600080fd5b600061274f8482850161250b565b91505092915050565b60006020828403121561276a57600080fd5b60006127788482850161254a565b91505092915050565b61278a816132dc565b82525050565b612799816132ee565b82525050565b60006127aa82613184565b6127b4818561319a565b93506127c481856020860161335f565b6127cd8161352b565b840191505092915050565b60006127e38261318f565b6127ed81856131ab565b93506127fd81856020860161335f565b6128068161352b565b840191505092915050565b600061281c8261318f565b61282681856131bc565b935061283681856020860161335f565b80840191505092915050565b6000815461284f81613392565b61285981866131bc565b945060018216600081146128745760018114612885576128b8565b60ff198316865281860193506128b8565b61288e8561316f565b60005b838110156128b057815481890152600182019150602081019050612891565b838801955050505b50505092915050565b60006128ce6032836131ab565b91506128d98261353c565b604082019050919050565b60006128f16025836131ab565b91506128fc8261358b565b604082019050919050565b6000612914601c836131ab565b915061291f826135da565b602082019050919050565b6000612937600a836131bc565b915061294282613603565b600a82019050919050565b600061295a6024836131ab565b91506129658261362c565b604082019050919050565b600061297d6019836131ab565b91506129888261367b565b602082019050919050565b60006129a06063836131bc565b91506129ab826136a4565b606382019050919050565b60006129c3600b836131bc565b91506129ce8261373f565b600b82019050919050565b60006129e6602c836131ab565b91506129f182613768565b604082019050919050565b6000612a09600d836131bc565b9150612a14826137b7565b600d82019050919050565b6000612a2c601a836131ab565b9150612a37826137e0565b602082019050919050565b6000612a4f6038836131ab565b9150612a5a82613809565b604082019050919050565b6000612a72602a836131ab565b9150612a7d82613858565b604082019050919050565b6000612a956029836131ab565b9150612aa0826138a7565b604082019050919050565b6000612ab8602e836131ab565b9150612ac3826138f6565b604082019050919050565b6000612adb6002836131bc565b9150612ae682613945565b600282019050919050565b6000612afe6020836131ab565b9150612b098261396e565b602082019050919050565b6000612b216031836131ab565b9150612b2c82613997565b604082019050919050565b6000612b44602c836131ab565b9150612b4f826139e6565b604082019050919050565b6000612b67602f836131ab565b9150612b7282613a35565b604082019050919050565b6000612b8a600a836131bc565b9150612b9582613a84565b600a82019050919050565b6000612bad6021836131ab565b9150612bb882613aad565b604082019050919050565b6000612bd0600a836131bc565b9150612bdb82613afc565b600a82019050919050565b6000612bf3601d836131bc565b9150612bfe82613b25565b601d82019050919050565b6000612c166031836131ab565b9150612c2182613b4e565b604082019050919050565b612c3581613346565b82525050565b6000612c478284612811565b915081905092915050565b6000612c5e8285612811565b9150612c6a8284612811565b91508190509392505050565b6000612c828286612811565b9150612c8e8285612811565b9150612c9a8284612811565b9150819050949350505050565b6000612cb38285612842565b9150612cbf8284612811565b9150612cca826129fc565b91508190509392505050565b6000612ce18261292a565b9150612ced8284612811565b915081905092915050565b6000612d03826129b6565b9150612d0f8284612811565b915081905092915050565b6000612d2582612b7d565b9150612d318285612811565b9150612d3c82612993565b9150612d488284612811565b9150612d5382612ace565b91508190509392505050565b6000612d6a82612bc3565b9150612d768284612811565b915081905092915050565b6000612d8c82612be6565b9150612d988284612811565b915081905092915050565b6000602082019050612db86000830184612781565b92915050565b6000608082019050612dd36000830187612781565b612de06020830186612781565b612ded6040830185612c2c565b8181036060830152612dff818461279f565b905095945050505050565b6000604082019050612e1f6000830185612781565b612e2c6020830184612c2c565b9392505050565b6000602082019050612e486000830184612790565b92915050565b60006020820190508181036000830152612e6881846127d8565b905092915050565b60006040820190508181036000830152612e8a81856127d8565b9050612e996020830184612c2c565b9392505050565b60006060820190508181036000830152612eba81866127d8565b9050612ec96020830185612c2c565b612ed66040830184612781565b949350505050565b60006020820190508181036000830152612ef7816128c1565b9050919050565b60006020820190508181036000830152612f17816128e4565b9050919050565b60006020820190508181036000830152612f3781612907565b9050919050565b60006020820190508181036000830152612f578161294d565b9050919050565b60006020820190508181036000830152612f7781612970565b9050919050565b60006020820190508181036000830152612f97816129d9565b9050919050565b60006020820190508181036000830152612fb781612a1f565b9050919050565b60006020820190508181036000830152612fd781612a42565b9050919050565b60006020820190508181036000830152612ff781612a65565b9050919050565b6000602082019050818103600083015261301781612a88565b9050919050565b6000602082019050818103600083015261303781612aab565b9050919050565b6000602082019050818103600083015261305781612af1565b9050919050565b6000602082019050818103600083015261307781612b14565b9050919050565b6000602082019050818103600083015261309781612b37565b9050919050565b600060208201905081810360008301526130b781612b5a565b9050919050565b600060208201905081810360008301526130d781612ba0565b9050919050565b600060208201905081810360008301526130f781612c09565b9050919050565b60006020820190506131136000830184612c2c565b92915050565b6000613123613134565b905061312f82826133c4565b919050565b6000604051905090565b600067ffffffffffffffff821115613159576131586134fc565b5b6131628261352b565b9050602081019050919050565b60008190508160005260206000209050919050565b600081519050919050565b600081519050919050565b600082825260208201905092915050565b600082825260208201905092915050565b600081905092915050565b60006131d282613346565b91506131dd83613346565b9250827fffffffffffffffffffffffffffffffffffffffffffffffffffffffffffffffff038211156132125761321161346f565b5b828201905092915050565b600061322882613346565b915061323383613346565b9250826132435761324261349e565b5b828204905092915050565b600061325982613346565b915061326483613346565b9250817fffffffffffffffffffffffffffffffffffffffffffffffffffffffffffffffff048311821515161561329d5761329c61346f565b5b828202905092915050565b60006132b382613346565b91506132be83613346565b9250828210156132d1576132d061346f565b5b828203905092915050565b60006132e782613326565b9050919050565b60008115159050919050565b60007fffffffff0000000000000000000000000000000000000000000000000000000082169050919050565b600073ffffffffffffffffffffffffffffffffffffffff82169050919050565b6000819050919050565b82818337600083830152505050565b60005b8381101561337d578082015181840152602081019050613362565b8381111561338c576000848401525b50505050565b600060028204905060018216806133aa57607f821691505b602082108114156133be576133bd6134cd565b5b50919050565b6133cd8261352b565b810181811067ffffffffffffffff821117156133ec576133eb6134fc565b5b80604052505050565b600061340082613346565b91507fffffffffffffffffffffffffffffffffffffffffffffffffffffffffffffffff8214156134335761343261346f565b5b600182019050919050565b600061344982613346565b915061345483613346565b9250826134645761346361349e565b5b828206905092915050565b7f4e487b7100000000000000000000000000000000000000000000000000000000600052601160045260246000fd5b7f4e487b7100000000000000000000000000000000000000000000000000000000600052601260045260246000fd5b7f4e487b7100000000000000000000000000000000000000000000000000000000600052602260045260246000fd5b7f4e487b7100000000000000000000000000000000000000000000000000000000600052604160045260246000fd5b6000601f19601f8301169050919050565b7f4552433732313a207472616e7366657220746f206e6f6e20455243373231526560008201527f63656976657220696d706c656d656e7465720000000000000000000000000000602082015250565b7f4552433732313a207472616e736665722066726f6d20696e636f72726563742060008201527f6f776e6572000000000000000000000000000000000000000000000000000000602082015250565b7f4552433732313a20746f6b656e20616c7265616479206d696e74656400000000600082015250565b7f54484952445f574f524400000000000000000000000000000000000000000000600082015250565b7f4552433732313a207472616e7366657220746f20746865207a65726f2061646460008201527f7265737300000000000000000000000000000000000000000000000000000000602082015250565b7f4552433732313a20617070726f766520746f2063616c6c657200000000000000600082015250565b7f222c20226465736372697074696f6e223a20224120686967686c79206163636c60008201527f61696d656420636f6c6c656374696f6e206f6620737175617265732e222c202260208201527f696d616765223a2022646174613a696d6167652f7376672b786d6c3b6261736560408201527f36342c0000000000000000000000000000000000000000000000000000000000606082015250565b7f5345434f4e445f574f5244000000000000000000000000000000000000000000600082015250565b7f4552433732313a206f70657261746f7220717565727920666f72206e6f6e657860008201527f697374656e7420746f6b656e0000000000000000000000000000000000000000602082015250565b7f3c2f746578743e3c2f7376673e00000000000000000000000000000000000000600082015250565b7f596f752063616e277420676574204e465420736f7272792e2e2e000000000000600082015250565b7f4552433732313a20617070726f76652063616c6c6572206973206e6f74206f7760008201527f6e6572206e6f7220617070726f76656420666f7220616c6c0000000000000000602082015250565b7f4552433732313a2062616c616e636520717565727920666f7220746865207a6560008201527f726f206164647265737300000000000000000000000000000000000000000000602082015250565b7f4552433732313a206f776e657220717565727920666f72206e6f6e657869737460008201527f656e7420746f6b656e0000000000000000000000000000000000000000000000602082015250565b7f45524337323155524953746f726167653a2055524920736574206f66206e6f6e60008201527f6578697374656e7420746f6b656e000000000000000000000000000000000000602082015250565b7f227d000000000000000000000000000000000000000000000000000000000000600082015250565b7f4552433732313a206d696e7420746f20746865207a65726f2061646472657373600082015250565b7f45524337323155524953746f726167653a2055524920717565727920666f722060008201527f6e6f6e6578697374656e7420746f6b656e000000000000000000000000000000602082015250565b7f4552433732313a20617070726f76656420717565727920666f72206e6f6e657860008201527f697374656e7420746f6b656e0000000000000000000000000000000000000000602082015250565b7f4552433732314d657461646174613a2055524920717565727920666f72206e6f60008201527f6e6578697374656e7420746f6b656e0000000000000000000000000000000000602082015250565b7f7b226e616d65223a202200000000000000000000000000000000000000000000600082015250565b7f4552433732313a20617070726f76616c20746f2063757272656e74206f776e6560008201527f7200000000000000000000000000000000000000000000000000000000000000602082015250565b7f46495253545f574f524400000000000000000000000000000000000000000000600082015250565b7f646174613a6170706c69636174696f6e2f6a736f6e3b6261736536342c000000600082015250565b7f4552433732313a207472616e736665722063616c6c6572206973206e6f74206f60008201527f776e6572206e6f7220617070726f766564000000000000000000000000000000602082015250565b613ba6816132dc565b8114613bb157600080fd5b50565b613bbd816132ee565b8114613bc857600080fd5b50565b613bd4816132fa565b8114613bdf57600080fd5b50565b613beb81613346565b8114613bf657600080fd5b5056fe416e204e465420772f20494420257320686173206265656e206d696e74656420746f2025734142434445464748494a4b4c4d4e4f505152535455565758595a6162636465666768696a6b6c6d6e6f707172737475767778797a303132333435363738392b2fa2646970667358221220f178f25d8ddb1e8cc36c31b0696d3373d855ac763196facc87f58e690afa020264736f6c634300080400333c73766720786d6c6e733d27687474703a2f2f7777772e77332e6f72672f323030302f73766727207072657365727665417370656374526174696f3d27784d696e594d696e206d656574272076696577426f783d273020302033353020333530273e3c7374796c653e2e62617365207b2066696c6c3a2077686974653b20666f6e742d66616d696c793a2073657269663b20666f6e742d73697a653a20323470783b207d3c2f7374796c653e3c726563742077696474683d273130302527206865696768743d2731303025272066696c6c3d27626c61636b27202f3e3c7465787420783d273530252720793d273530252720636c6173733d27626173652720646f6d696e616e742d626173656c696e653d276d6964646c652720746578742d616e63686f723d276d6964646c65273e",
  "linkReferences": {},
  "deployedLinkReferences": {}
}